:020000040000FA
:0400080010EF10F0F5
:0800180000EF20F0FFFFFFFFE5
:10002000FFFFFFFFFFFFFFFFFFFFFFFFFFFFFFFFE0
:10003000FFFFFFFFFFFFFFFFFFFFFFFFFFFFFFFFD0
:10004000FFFFFFFFFFFFFFFFFFFFFFFFFFFFFFFFC0
:10005000FFFFFFFFFFFFFFFFFFFFFFFFFFFFFFFFB0
:10006000FFFFFFFFFFFFFFFFFFFFFFFFFFFFFFFFA0
:0A007000FFFFFFFFFFFFFFFFFFFF90
:1020000000F636005A3700EC37009238002E3900BF
:10201000CA3900063A001A200000A2EF2BF0120085
:10202000D8CFE5FFE0CFE5FFE56EF3CFE5FFF4CFD6
:10203000E5FFE9CFE5FFEACFE5FFFACFE5FFFBCF0C
:10204000E5FFD9CFE5FFE1CFD9FFF6CFE5FFF7CF29
:10205000E5FFF8CFE5FFF5CFE5FF36EC2AF0E4CF5A
:10206000F5FFE4CFF8FFE4CFF7FFE4CFF6FFE4CFCE
:10207000D9FFE4CFFBFFE4CFFAFFE4CFEAFFE4CFE0
:10208000E9FFE4CFF4FFE4CFF3FFE450E4CFE0FF57
:10209000E4CFD8FF1000D9CFE5FFE1CFD9FF00C0D2
:1020A000E5FF01C0E5FF02C0E5FF03C0E5FF04C096
:1020B000E5FF05C0E5FF06C0E5FF07C0E5FF08C076
:1020C000E5FF09C0E5FF0AC0E5FF0BC0E5FF0CC056
:1020D000E5FF0DC0E5FF0EC0E5FF0FC0E5FF10C036
:1020E000E5FF11C0E5FF12C0E5FF13C0E5FF14C016
:1020F000E5FF15C0E5FF16C0E5FF17C0E5FF18C0F6
:10210000E5FF19C0E5FF020EDBCF00F0030EDBCFC9
:1021100001F0040EDBCF02F0050EDBCF03F0060E5C
:10212000DBCF04F0070EDBCF05F0080EDBCF06F0A7
:10213000090EDBCF07F00A0EDBCF08F0096A020EAA
:102140000A6E03C0E9FF04C0F3FF055029EC00F05C
:102150000B6E0B5002E111EF15F00C6A0B50250AC3
:1021600002E0F8EF14F00B6A0D6A032A02E3044A56
:10217000052A03C0E9FF04C0F3FF055029EC00F075
:102180000E6E0E50D8B411EF15F00E50250A02E174
:10219000F8EF14F00E502D0A06E1032A02E3044A78
:1021A000052A010E0B6E03C00EF004C00FF005C02F
:1021B00010F00EC0E9FF0FC0F3FF105029EC00F043
:1021C000300A06E10E2A02E30F4A102A0B82F1D7E9
:1021D0000EC0E9FF0FC0F3FF105029EC00F0116EA4
:1021E000300E115C13E33A0E115C10E20D500A0D33
:1021F000F3CF0DF0D00E11260D50126E1150122497
:102200000D6E0E2A02E30F4A102AE2D70EC003F029
:102210000FC004F010C005F00EC0E9FF0FC0F3FFBF
:10222000105029EC00F02E0A34E10E50010F036E1D
:10223000000E0F20046E000E1020056E0A6A03C007
:102240000EF004C00FF005C010F00EC0E9FF0FC083
:10225000F3FF105029EC00F0116E300E115C13E307
:102260003A0E115C10E20A500A0DF3CF0AF0D00EBC
:1022700011260A50126E115012240A6E0E2A02E321
:102280000F4A102AE2D70EC003F00FC004F010C0AE
:1022900005F003C0E9FF04C0F3FF055029EC00F08E
:1022A0000E6E660A01E040D00650040F0F6E000E5D
:1022B0000720106E000E0820116E0FC006F010C02F
:1022C00007F011C008F0FC0E0F26FF0E102211229D
:1022D0000FC0E9FF10C0F3FF11502FEC00F00F6E9C
:1022E000F3CF10F0F4CF11F0E9CF12F00A50E56E01
:1022F000E56A0B50E56E0D50E56E1250E56E11501B
:10230000E56E1050E56E0F50E56E0250E56E01501F
:10231000E56E0050E56E9BEC18F00F6E0B0EE1269B
:102320000F5009260BEF15F00E50730A01E045D04F
:102330000650030F0F6E000E0720106E000E0820CF
:10234000116E0FC006F010C007F011C008F0FD0EAE
:102350000F26FF0E102211220FC0E9FF10C0F3FF5D
:1023600011502DEC00F00F6EF3CF10F0F4CF11F000
:102370001010111006E1000E116E3A0E106E620E72
:102380000F6E0B50E56E0D50E56E1150E56E10505E
:10239000E56E0F50E56E0250E56E0150E56E00509F
:1023A000E56E2BEC1FF00F6E080EE1260950106E43
:1023B0000F501024096E0BEF15F00E506C0A06E159
:1023C000032A02E3044A052A010E0C6E03C0E9FF4A
:1023D00004C0F3FF055029EC00F00E6E750A01E011
:1023E0006CD00C5023E00650040F0F6E000E072037
:1023F000106E000E0820116E0FC006F010C007F01E
:1024000011C008F0FC0E0F26FF0E102211220FC083
:10241000E9FF10C0F3FF11502FEC00F00F6EF3CF67
:1024200010F0F4CF11F0E9CF12F024D00650020FD3
:10243000136E000E0720146E000E0820156E13C0D8
:1024400006F014C007F015C008F0FE0E1326FF0EAC
:102450001422152213C0E9FF14C0F3FF15502BEC12
:1024600000F0136EF3CF14F013C00FF014C010F08F
:10247000116A126A610EE56EE56A0B50E56E0D5049
:10248000E56EE56A0A0EE56E0C50E56E1250E56EDB
:102490001150E56E1050E56E0F50E56E0250E56E7E
:1024A0000150E56E0050E56E77EC1DF0136E0E0ED8
:1024B000E126135009260BEF15F00E50640A04E0D4
:1024C0000E50690A01E075D00C5023E00650040F4D
:1024D000136E000E0720146E000E0820156E13C038
:1024E00006F014C007F015C008F0FC0E1326FF0E0E
:1024F0001422152213C0E9FF14C0F3FF15502FEC6E
:1025000000F0136EF3CF14F0F4CF15F0E9CF16F00E
:1025100024D00650020F176E000E0720186E000E12
:102520000820196E17C006F018C007F019C008F08F
:10253000FE0E1726FF0E1822192217C0E9FF18C039
:10254000F3FF19502BEC00F0176EF3CF18F017C003
:1025500013F018C014F0156A166A13C00FF014C0F7
:1025600010F015C011F016C012F0610EE56EE56AAC
:102570000B50E56E0D50E56E010EE56E0A0EE56E30
:102580000C50E56E1250E56E1150E56E1050E56E80
:102590000F50E56E0250E56E0150E56E0050E56E9D
:1025A00077EC1DF0136E0E0EE126135009260BEF8B
:1025B00015F00E50780A04E00E50700A01E073D056
:1025C0000C5023E00650040F136E000E0720146E0B
:1025D000000E0820156E13C006F014C007F015C0D9
:1025E00008F0FC0E1326FF0E1422152213C0E9FF7B
:1025F00014C0F3FF15502FEC00F0136EF3CF14F05E
:10260000F4CF15F0E9CF16F024D00650020F176E64
:10261000000E0720186E000E0820196E17C006F075
:1026200018C007F019C008F0FE0E1726FF0E18227A
:10263000192217C0E9FF18C0F3FF19502BEC00F066
:10264000176EF3CF18F017C013F018C014F0156A06
:10265000166A13C00FF014C010F015C011F016C0A8
:1026600012F0610EE56EE56A0B50E56E0D50E56EF9
:10267000E56A100EE56E0C50E56E1250E56E1150D5
:10268000E56E1050E56E0F50E56E0250E56E01509C
:10269000E56E0050E56E77EC1DF0136E0E0EE12630
:1026A00013500926B8D10E50580A04E00E50500AB3
:1026B00001E073D00C5023E00650040F136E000E9F
:1026C0000720146E000E0820156E13C006F014C00B
:1026D00007F015C008F0FC0E1326FF0E1422152279
:1026E00013C0E9FF14C0F3FF15502FEC00F0136E78
:1026F000F3CF14F0F4CF15F0E9CF16F024D0065044
:10270000020F176E000E0720186E000E0820196EBB
:1027100017C006F018C007F019C008F0FE0E172603
:10272000FF0E1822192217C0E9FF18C0F3FF195035
:102730002BEC00F0176EF3CF18F017C013F018C091
:1027400014F0156A166A13C00FF014C010F015C00B
:1027500011F016C012F0410EE56EE56A0B50E56E01
:102760000D50E56EE56A100EE56E0C50E56E1250E8
:10277000E56E1150E56E1050E56E0F50E56E02509B
:10278000E56E0150E56E0050E56E77EC1DF0136EBE
:102790000E0EE126135009263ED10E50620A01E0CA
:1027A00073D00C5023E00650040F136E000E072068
:1027B000146E000E0820156E13C006F014C007F04A
:1027C00015C008F0FC0E1326FF0E1422152213C0AC
:1027D000E9FF14C0F3FF15502FEC00F0136EF3CF98
:1027E00014F0F4CF15F0E9CF16F024D00650020F04
:1027F000176E000E0720186E000E0820196E17C005
:1028000006F018C007F019C008F0FE0E1726FF0EDC
:102810001822192217C0E9FF18C0F3FF19502BEC3A
:1028200000F0176EF3CF18F017C013F018C014F0B3
:10283000156A166A13C00FF014C010F015C011F01D
:1028400016C012F0610EE56EE56A0B50E56E0D5094
:10285000E56EE56A020EE56E0C50E56E1250E56E0F
:102860001150E56E1050E56E0F50E56E0250E56EAA
:102870000150E56E0050E56E77EC1DF0136E0E0E04
:10288000E12613500926C7D00E506F0A01E073D01D
:102890000C5023E00650040F136E000E0720146E38
:1028A000000E0820156E13C006F014C007F015C006
:1028B00008F0FC0E1326FF0E1422152213C0E9FFA8
:1028C00014C0F3FF15502FEC00F0136EF3CF14F08B
:1028D000F4CF15F0E9CF16F024D00650020F176E92
:1028E000000E0720186E000E0820196E17C006F0A3
:1028F00018C007F019C008F0FE0E1726FF0E1822A8
:10290000192217C0E9FF18C0F3FF19502BEC00F093
:10291000176EF3CF18F017C013F018C014F0156A33
:10292000166A13C00FF014C010F015C011F016C0D5
:1029300012F0610EE56EE56A0B50E56E0D50E56E26
:10294000E56A080EE56E0C50E56E1250E56E11500A
:10295000E56E1050E56E0F50E56E0250E56E0150C9
:10296000E56E0050E56E77EC1DF00C6E0E0EE12664
:102970000C50092650D00E50630A01E04CD006508E
:10298000020F0C6E000E07200E6E000E08200F6E58
:102990000CC006F00EC007F00FC008F0FE0E0C26AB
:1029A000FF0E0E220F220CC0E9FF0EC0F3FF0F50E6
:1029B0002BEC00F00201FE6FFF6B0B50E56E0D502B
:1029C000E56E800EE56E020EE56EFE0EE56E0250BF
:1029D000E56E0150E56E0050E56E2BEC1FF00B6EBE
:1029E000080EE12609500C6E0B500C24096E13D012
:1029F00003C0E9FF04C0F3FF055029EC00F0E56EC9
:102A00000250E56E0150E56E0050E56EABEC27F02C
:102A1000040EE126092A032A02E3044A052AA1EF4B
:102A200010F000500110021014E000C0E9FF01C0D6
:102A3000F3FF02502DEC00F0006EF3CF01F0F4CF65
:102A400002F0E56A00C0E9FF01C0F3FF025031EC7B
:102A500000F00950E4CF19F0E4CF18F0E4CF17F0FC
:102A6000E4CF16F0E4CF15F0E4CF14F0E4CF13F088
:102A7000E4CF12F0E4CF11F0E4CF10F0E4CF0FF088
:102A8000E4CF0EF0E4CF0DF0E4CF0CF0E4CF0BF088
:102A9000E4CF0AF0E4CF09F0E4CF08F0E4CF07F088
:102AA000E4CF06F0E4CF05F0E4CF04F0E4CF03F088
:102AB000E4CF02F0E4CF01F0E4CF00F0E4CFD9FF9F
:102AC000120000C0E5FF01C0E5FF03012A6B2B6B7C
:102AD0002C6B5EEC2BF0006E005008E0B6EC29F099
:102AE00003012A6FF3CF2BF3F4CF2CF30201D23F73
:102AF00001D0D32BE56A010EE56EEDEC2AF0E6522B
:102B0000E6520201D7510201D35D04E10201D65120
:102B10000201D25D07E30201D26BD36B0201D43F05
:102B200001D0D52B000E0201D55D02E10A0ED45D65
:102B300003E30201D46BD56B000E0201D55D02E107
:102B4000050ED45D0CE303012D51006E010EE56E00
:102B50000050E56E4CEC23F0E652E65208D003013B
:102B60002D51E56AE56E4CEC23F0E652E652020187
:102B7000EA51E56EE951E56EE851E56E03012C512D
:102B8000E56E2B51E56E2A51E56E9EEC26F0006E47
:102B9000F3CF01F0060EE12600500110D8A457D063
:102BA0000201F451010A02E1F55124E0010E020193
:102BB000F46FF56B03013551E56AE56E4CEC23F0DB
:102BC000E652E65203013751E56AE56E4CEC23F01C
:102BD000E652E65203013151E56AE56E4CEC23F012
:102BE000E652E65203013351E56AE56E4CEC23F000
:102BF000E652E65203013751006E010EE56E0050B9
:102C0000E56E4CEC23F0E652E65203013551E56ADD
:102C1000E56E4CEC23F0E652E652000E0201D55D63
:102C200002E1010ED45D13E303013151006E010E88
:102C3000E56E0050E56E4CEC23F0E652E6520301DF
:102C40003351E56AE56E4CEC23F0E652E6520201A0
:102C5000ED51E56EEC51E56EEB51E56E03012C5143
:102C6000E56E2B51E56E2A51E56E9EEC26F0006E66
:102C7000F3CF01F0060EE12600500110D8A457D082
:102C80000201F451020A02E1F55124E0020E0201B0
:102C9000F46FF56B03013551E56AE56E4CEC23F0FA
:102CA000E652E65203013751E56AE56E4CEC23F03B
:102CB000E652E65203013151E56AE56E4CEC23F031
:102CC000E652E65203013351E56AE56E4CEC23F01F
:102CD000E652E65203013751006E010EE56E0050D8
:102CE000E56E4CEC23F0E652E65203013551E56AFD
:102CF000E56E4CEC23F0E652E652000E0201D55D83
:102D000002E1010ED45D13E303013151E56AE56E82
:102D10004CEC23F0E652E65203013351006E010EF3
:102D2000E56E0050E56E4CEC23F0E652E6520201EF
:102D3000F051E56EEF51E56EEE51E56E03012C5159
:102D4000E56E2B51E56E2A51E56E9EEC26F0006E85
:102D5000F3CF01F0060EE12600500110D8A44CD0AC
:102D60000201F451040A02E1F55124E0040E0201CB
:102D7000F46FF56B03013551E56AE56E4CEC23F019
:102D8000E652E65203013751E56AE56E4CEC23F05A
:102D9000E652E65203013151E56AE56E4CEC23F050
:102DA000E652E65203013351E56AE56E4CEC23F03E
:102DB000E652E65203013751E56AE56E4CEC23F02A
:102DC000E652E65203013551006E010EE56E0050E9
:102DD000E56E4CEC23F0E652E652000E0201D55DA2
:102DE00002E1010ED45D08E303013351E56AE56EAB
:102DF0004CEC23F0E652E6520201F351E56EF2513B
:102E0000E56EF151E56E03012C51E56E2B51E56E37
:102E10002A51E56E9EEC26F0006EF3CF01F0060E0F
:102E2000E12600500110D8A457D00201F451050A40
:102E300002E1F55124E0050E0201F46FF56B030188
:102E40003551E56AE56E4CEC23F0E652E65203019B
:102E50003751E56AE56E4CEC23F0E652E652030189
:102E60003151E56AE56E4CEC23F0E652E65203017F
:102E70003351E56AE56E4CEC23F0E652E65203016D
:102E80003751E56AE56E4CEC23F0E652E652030159
:102E90003551006E010EE56E0050E56E4CEC23F0EE
:102EA000E652E652000E0201D55D02E1010ED45D4C
:102EB00013E303013151E56AE56E4CEC23F0E65271
:102EC000E65203013351006E010EE56E0050E56ECF
:102ED0004CEC23F0E652E6520201DB51E56EDA518A
:102EE000E56ED951E56E03012C51E56E2B51E56E6F
:102EF0002A51E56E9EEC26F0006EF3CF01F0060E2F
:102F0000E12600500110D8A43DD00201F451030A7B
:102F100002E1F55124E0030E0201F46FF56B0301A9
:102F20003551E56AE56E4CEC23F0E652E6520301BA
:102F30003751E56AE56E4CEC23F0E652E6520301A8
:102F40003151E56AE56E4CEC23F0E652E65203019E
:102F50003351E56AE56E4CEC23F0E652E65203018C
:102F60003551006E010EE56E0050E56E4CEC23F01D
:102F7000E652E65203013751E56AE56E4CEC23F068
:102F8000E652E6520201DE51E56EDD51E56EDC519E
:102F9000E56E03012C51E56E2B51E56E2A51E56E6D
:102FA0009EEC26F0006EF3CF01F0060EE1260050F5
:102FB0000110D8A43DD00201F451030A02E1F551F9
:102FC00024E0030E0201F46FF56B03013551E56A4D
:102FD000E56E4CEC23F0E652E65203013751E56A08
:102FE000E56E4CEC23F0E652E65203013151E56AFE
:102FF000E56E4CEC23F0E652E65203013351E56AEC
:10300000E56E4CEC23F0E652E65203013551E56AD9
:10301000E56E4CEC23F0E652E65203013751006EA8
:10302000010EE56E0050E56E4CEC23F0E652E652E0
:103030000201E151E56EE051E56EDF51E56E0301FD
:103040002C51E56E2B51E56E2A51E56E9EEC26F073
:10305000006EF3CF01F0060EE126005001100BE1E7
:1030600003013351006E010EE56E0050E56E4CEC2D
:1030700023F0E652E6520201E451E56EE351E56EBB
:10308000E251E56E03012C51E56E2B51E56E2A519C
:10309000E56E9EEC26F0006EF3CF01F0060EE12601
:1030A000005001100BE103013151006E010EE56E7D
:1030B0000050E56E4CEC23F0E652E6520201E75177
:1030C000E56EE651E56EE551E56E03012C51E56EC6
:1030D0002B51E56E2A51E56E9EEC26F0006EF3CF83
:1030E00001F0060EE1260050011020E103013551E8
:1030F000E56AE56E4CEC23F0E652E65203013751E7
:10310000E56AE56E4CEC23F0E652E65203013151DC
:10311000E56AE56E4CEC23F0E652E65203013351CA
:10312000E56AE56E4CEC23F0E652E652E4CF01F09E
:10313000E4CF00F01200D9CFE5FFE1CFD9FF00C006
:10314000E5FF01C0E5FF02C0E5FF03C0E5FF04C0E5
:10315000E5FF05C0E5FF06C0E5FF07C0E5FF08C0C5
:10316000E5FF09C0E5FF0AC0E5FF0BC0E5FF0CC0A5
:10317000E5FF0DC0E5FF0EC0E5FF0FC0E5FF10C085
:10318000E5FF11C0E5FF12C0E5FF13C0E5FF14C065
:10319000E5FF15C0E5FF16C0E5FF17C0E5FF18C045
:1031A000E5FF19C0E5FF1AC0E5FF1BC0E5FF1CC025
:1031B000E5FF1DC0E5FF1EC0E5FF1FC0E5FF20C005
:1031C000E5FF020EDBCF00F0030EDBCF01F0040EB3
:1031D000DBCF02F0050EDBCF03F0060EDBCF04F0F1
:1031E000070EDBCF05F0080EDBCF06F0090EDBCFB4
:1031F00007F00A0EDBCF08F00C0EDBCF09F00A6AED
:103200000B6A0C6A0D6A0E6A0F6A106A116A030E65
:10321000136E0C0E126E800E146E030E166E180EC8
:10322000156E800E176E186A0B0E196E0350020190
:10323000FA6F0450FB6F0550FC6F0650FD6FD8808D
:10324000FDAFD89023E3075012E008A210D02D0E56
:10325000E56E0250E56E0150E56E0050E56EABEC98
:1032600027F0040EE126010E186E07060FD02D0E72
:10327000E56E12C0E9FF13C0F3FF145031EC00F00B
:10328000122A02E3134A142A0A0E196E0201FC35AF
:10329000FD35036E046A810E0326FA51046EFB515C
:1032A000056E7F0EFC15066E1A6A068E0350800F9F
:1032B000610F21E32B0E03010C6F690E0D6F6E0E73
:1032C0000E6F660E0F6F106B0850E56E0750E56EBF
:1032D000800EE56E030EE56E0C0EE56E0250E56E97
:1032E0000150E56E0050E56E2BEC1FF01B6E080ED2
:1032F000E1261B50BBD10350800F970F09E20A6AE9
:103300000B6A0C6A0D6A0E6A0F6A106A116A9DD008
:103310000350800F690F25E303C01BF01C6A03BE36
:103320001C68E90E1B26D8A01C0604C00AF005C0C4
:103330000BF006C00CF01AC00DF01B5011E009E6AE
:10334000E86CD8900A360B360C360D36010FFAE3CE
:103350007CD0D8900D320C320B320A32010FFAE3D6
:1033600074D0D88003AED890D8B04AD003C01BF038
:103370001C6A03BE1C681B5017081D6E000E1C54EF
:1033800004C00AF005C00BF006C00CF01AC00DF026
:103390001D5011E009E6E86CD8900D320C320B326A
:1033A0000A32010FFAE307D0D8900A360B360C36F2
:1033B0000D36010FFAE31B4A1C2A04C01DF005C09C
:1033C0001EF006C01FF01AC020F01B5011E009E6E5
:1033D000E86CD8901D361E361F362036010FFAE3F2
:1033E00007D0D89020321F321E321D32010FFAE36F
:1033F0001D500E6E1E500F6E1F50106E116A25D09C
:103400001A6A1B6A03BE1B68034A1B2A1B1E036C35
:10341000D8B41B2A04C00EF005C00FF006C010F08F
:103420001AC011F0035011E009E6E86CD89011328F
:1034300010320F320E32010FFAE307D0D8900E3659
:103440000F3610361136010FFAE30A500B100C102C
:103450000D100FE1300EE56E12C0E9FF13C0F3FF4F
:10346000145031EC00F0122A02E3134A142A190610
:1034700078D015C003F016C004F017C005F0066A36
:1034800019C015F00A500B100C100D10D8B43CD018
:10349000E56AE56AE56A0A0EE56E0D50E56E0C50C8
:1034A000E56E0B50E56E0A50E56E7FEC25F0166E6A
:1034B000080EE126300E162616C0E5FF03C0E9FF10
:1034C00004C0F3FF055031EC00F0032A02E3044A84
:1034D000052AE56AE56AE56A0A0EE56E0D50E56EB5
:1034E0000C50E56E0B50E56E0A50E56E12EC26F0BE
:1034F0000A6EF3CF0BF0F4CF0CF0E9CF0DF0080E0D
:10350000E126062A1506BED715C019F012C00AF02A
:1035100013C00BF014C00CF006C00DF006060D50E1
:103520001AE0FF0E03260422052203C0E9FF04C0AF
:10353000F3FF055029EC00F00D6E0DC0E5FF0AC049
:10354000E9FF0BC0F3FF0C5031EC00F00A2AE4E372
:103550000B4A0C2AE1D70AC012F00BC013F00CC0C2
:1035600014F0070E095C02E3060E096E0950195C9F
:10357000D8A019C009F0010E095CD8A057D02E0EB2
:10358000E56E12C0E9FF13C0F3FF145031EC00F0F8
:10359000122A02E3134A142A12C003F013C004F0E3
:1035A00014C005F0066A0950065C3AE20E500E247B
:1035B0000A6E0F340B6E10340C6E11340D6E0A50FF
:1035C0000A260B360C360D360A500A260B360C36F8
:1035D0000D360E500E24156E0F34166E1034176E05
:1035E0001134196E15500A240E6E16500B200F6EF2
:1035F00017500C20106E19500D200A6E300E0A263E
:103600000AC0E5FF03C0E9FF04C0F3FF055031EC39
:1036100000F0032A02E3044A052A116A062AC3D7E6
:1036200003C012F004C013F005C014F0E56A12C024
:10363000E9FF13C0F3FF145031EC00F00850E56EC1
:103640000750E56E800EE56E030EE56E0C0EE56E1E
:103650000250E56E0150E56E0050E56E2BEC1FF058
:10366000006E080EE126185000260050E4CF20F02E
:10367000E4CF1FF0E4CF1EF0E4CF1DF0E4CF1CF048
:10368000E4CF1BF0E4CF1AF0E4CF19F0E4CF18F048
:10369000E4CF17F0E4CF16F0E4CF15F0E4CF14F048
:1036A000E4CF13F0E4CF12F0E4CF11F0E4CF10F048
:1036B000E4CF0FF0E4CF0EF0E4CF0DF0E4CF0CF048
:1036C000E4CF0BF0E4CF0AF0E4CF09F0E4CF08F048
:1036D000E4CF07F0E4CF06F0E4CF05F0E4CF04F048
:1036E000E4CF03F0E4CF02F0E4CF01F0E4CF00F048
:1036F000E4CFD9FF120012010002FF00FF08D80436
:10370000AAFE00010102030309021200010104C024
:10371000000904000000FFFFFF040902200001026D
:1037200005C0000904000002FFFFFF0507050102B4
:10373000400000070582024000000902200001034A
:1037400004C0000904000002FFFFFF060705010294
:10375000400000070582024000000837001A3700C9
:103760003A3700000403090426034A00650061009B
:103770006E002D0050006900650072007200650047
:1037800020004D0041004E0044004F004E00220337
:10379000500069006E006700750069006E006F00E0
:1037A0002000500072006F006A0065006300740022
:1037B00004033100100344006500660061007500D9
:1037C0006C0074000C0346006C006100730068001C
:1037D0001C03500069006E006700750069006E00F0
:1037E0006F0020006100700070006C00643700689A
:1037F00037008E3700B03700B43700C43700D037F9
:1038000000002E00001E20001E20001E20001E2092
:10381000001E20001E20001E20001E20001E200072
:103820001E20001E20001E20001E20001E20001E44
:1038300020002E00003A00004200001E20001E2042
:10384000001E20001E20001E20001E20001E200042
:103850001E20001E20001E20001E20001E20001E14
:1038600020002E0000FA3F00FC3F001E20001E201A
:10387000001E20001E20001E20001E20001E200012
:103880001E20001E20001E20001E20001E20001EE4
:10389000200002380002380032380062380032005E
:1038A000001E20001E20001E20001E20001E2000E2
:1038B0001E20001E20001E20001E20001E20001EB4
:1038C00020001E20001E20001E20001E20003200AE
:1038D000001E20004600001E20001E20001E2000AA
:1038E0001E20001E20001E20001E20001E20001E84
:1038F00020001E20001E20001E20001E200032007E
:10390000001E20008057001E20001E20001E2000E8
:103910001E20001E20001E20001E20001E20001E53
:1039200020001E20001E20001E20001E20009E38A9
:10393000009E3800CE3800FE38002E00001E200009
:103940001E20001E20001E20001E20001E20001E23
:1039500020001E20001E20001E20001E20001E2011
:10396000001E20001E20001E20002E00003E000031
:103970001E20001E20001E20001E20001E20001EF3
:1039800020001E20001E20001E20001E20001E20E1
:10399000001E20001E20001E20002E0000FE3F0002
:1039A0001E20001E20001E20001E20001E20001EC3
:1039B00020001E20001E20001E20001E20001E20B1
:1039C000001E20001E20001E20003A39003A390057
:1039D0006A39009A39003600001E20001E20001EA1
:1039E00020001E20001E20001E20001E20001E2081
:1039F000001E20001E20001E20001E20001E200091
:103A00001E20001E2000D63900D63900D63900D637
:103A100039000102040810204080408001020401A6
:103A2000020408201000010101010101010102024C
:103A3000020202000000000000000203040601026E
:103A40000304127A000048E8010090D0030020A18E
:103A5000070040420F0080841E0000093D00001254
:103A60007A00286E756C6C290000256300000D0A31
:103A700000002A2A2A2A2A2A2A2A2A2A2A2A2A2AFA
:103A80002A2A2A2A2A2A2A2A2A2A2A2A2A2A2A2A96
:103A90002A2A2A2A2A2A2A0D0A002A2A2A20436F99
:103AA0006D756E69646164204F70656E68617264E3
:103AB0007761726520426F6C766961202A2A2A0D2F
:103AC0000A00617175690D0A000031450D0032452B
:103AD0000D0033450D0034450D0035450D003645CC
:103AE0000D0037450D0038450D0039450D00D9CF83
:103AF000E5FFE1CFD9FF00C0E5FF01C0E5FF02C04F
:103B0000E5FF03C0E5FF04C0E5FF05C0E5FF06C013
:103B1000E5FF07C0E5FF08C0E5FF09C0E5FF0AC0F3
:103B2000E5FF0BC0E5FF0CC0E5FF0DC0E5FF0EC0D3
:103B3000E5FF0FC0E5FF10C0E5FF11C0E5FF12C0B3
:103B4000E5FF13C0E5FF14C0E5FF15C0E5FF16C093
:103B5000E5FF17C0E5FF18C0E5FF19C0E5FF1AC073
:103B6000E5FF1BC0E5FF020EDBCF00F0030EDBCF4D
:103B700001F0040EDBCF02F0050EDBCF03F0060EE2
:103B8000DBCF04F0070EDBCF05F0080EDBCF06F02D
:103B9000090EDBCF07F00A0EDBCF08F00B0EDBCFF0
:103BA00009F00C0EDBCF0AF00D0EDBCF0BF00F0E81
:103BB000DBCF0CF00D6A0E6A03C00FF004C010F0EA
:103BC00005C011F006C012F00350041005100610D5
:103BD0001BE1300E0301006F016B0B50E56E0A50C4
:103BE000E56E800EE56E030EE56E000EE56E02508A
:103BF000E56E0150E56E0050E56E2BEC1FF0136E84
:103C0000080EE1261350ECD0095036E008500A0A9D
:103C100033E107501CE00350096E0450136E055049
:103C2000146E0650156ED88015AED89010E3010EB4
:103C30000D6E151C126E141C116E131C106E091CD7
:103C40000F6E0F2A04E1102A02E1114A122A0750CE
:103C500013E1D88004AED8900FE3010E0D6E041E60
:103C6000036CD8B4042A03C00FF004C010F0E86A53
:103C700004BEFF0E116E126E030E046E0B0E036E69
:103C8000800E056EE56A03C0E9FF04C0F3FF31EC66
:103C900000F003C006F004C007F005C009F00F50A3
:103CA000101011101210D8B45AD008C013F0146AB2
:103CB000156A166AE56AE56AE56A1350E56E125000
:103CC000E56E1150E56E1050E56E0F50E56E7FEC1D
:103CD00025F0176EF3CF18F0F4CF19F0E9CF1AF0F2
:103CE000080EE126000E1A5C08E1000E195C05E1E1
:103CF000000E185C02E10A0E175C06E30CC01BF014
:103D0000C60E1B261B501726FF0E06260722092269
:103D1000300E172617C0E5FF06C0E9FF07C0F3FF06
:103D2000095031EC00F01650E56E1550E56E145058
:103D3000E56E1350E56E1250E56E1150E56E1050B1
:103D4000E56E0F50E56E12EC26F00F6EF3CF10F01B
:103D5000F4CF11F0E9CF12F0080EE126A0D706C08B
:103D600003F007C004F009C005F00D5021E00A502F
:103D700012E00BA210D02D0EE56E0250E56E015040
:103D8000E56E0050E56EABEC27F0040EE126010E67
:103D90000E6E0A060DD0FF0E0326042205222D0EFC
:103DA000E56E03C0E9FF04C0F3FF055031EC00F0FD
:103DB0000B50E56E0A50E56E0550E56E0450E56E59
:103DC0000350E56E0250E56E0150E56E0050E56E61
:103DD0002BEC1FF0006E080EE1260E50002600505E
:103DE000E4CF1BF0E4CF1AF0E4CF19F0E4CF18F0E1
:103DF000E4CF17F0E4CF16F0E4CF15F0E4CF14F0E1
:103E0000E4CF13F0E4CF12F0E4CF11F0E4CF10F0E0
:103E1000E4CF0FF0E4CF0EF0E4CF0DF0E4CF0CF0E0
:103E2000E4CF0BF0E4CF0AF0E4CF09F0E4CF08F0E0
:103E3000E4CF07F0E4CF06F0E4CF05F0E4CF04F0E0
:103E4000E4CF03F0E4CF02F0E4CF01F0E4CF00F0E0
:103E5000E4CFD9FF1200D9CFE5FFE1CFD9FF00C0F1
:103E6000E5FF01C0E5FF02C0E5FF03C0E5FF04C0B8
:103E7000E5FF05C0E5FF06C0E5FF07C0E5FF08C098
:103E8000E5FF09C0E5FF0AC0E5FF0BC0E5FF0CC078
:103E9000E5FF0DC0E5FF0EC0E5FF020EDBCF00F031
:103EA000030EDBCF01F0040EDBCF02F0050EDBCFFB
:103EB00003F0060EDBCF04F0070EDBCF05F0080E93
:103EC000DBCF06F0090EDBCF07F0086A200E096E83
:103ED000065022E00A6A03C00BF004C00CF005C0D3
:103EE0000DF00BC0E9FF0CC0F3FF0D5029EC00F002
:103EF0000E6E0E5006E00A2A0B2AF3E30C4A0D2A36
:103F0000F0D706500A5C02E3066A02D00A50065E49
:103F100007A202D0300E096E07B019D0076A06C09A
:103F20000AF00A5005E107C008F00AC006F00FD0F9
:103F30000950E56E0250E56E0150E56E0050E56EE9
:103F4000ABEC27F0040EE126072A0A06EAD708C0E0
:103F500007F003C0E9FF04C0F3FF055029EC00F0AF
:103F6000086E085012E00850E56E0250E56E0150F0
:103F7000E56E0050E56EABEC27F0040EE126072A53
:103F8000032AE7E3044A052AE4D707C003F006C082
:103F900004F004500FE00950E56E0250E56E015048
:103FA000E56E0050E56EABEC27F0040EE126032A27
:103FB0000406EFD7F36A0350E4CF0EF0E4CF0DF020
:103FC000E4CF0CF0E4CF0BF0E4CF0AF0E4CF09F03B
:103FD000E4CF08F0E4CF07F0E4CF06F0E4CF05F03B
:103FE000E4CF04F0E4CF03F0E4CF02F0E4CF01F03B
:103FF000E4CF00F0E4CFD9FF12001200120012004B
:10400000D8CFE5FFE0CFE5FFE56EF3CFE5FFF4CFD6
:10401000E5FFE9CFE5FFEACFE5FFFACFE5FFFBCF0C
:10402000E5FFD9CFE5FFE1CFD9FFF6CFE5FFF7CF29
:10403000E5FFF8CFE5FFF5CFE5FFE4CFF5FFE4CFEF
:10404000F8FFE4CFF7FFE4CFF6FFE4CFD9FFE4CFEA
:10405000FBFFE4CFFAFFE4CFEAFFE4CFE9FFE4CFD0
:10406000F4FFE4CFF3FFE450E4CFE0FFE4CFD8FF68
:10407000100000C0E5FF030E03012D6F2E6B020E32
:1040800003012F6F306B070E0301316F326B060E89
:104090000301336F346B0F0E0301356F366B0D0E5A
:1040A0000301376F386BE56A030EE56E7BEC22F097
:1040B000E652E65203012F51E56AE56E7BEC22F0F1
:1040C000E652E65203013151E56AE56E7BEC22F0DF
:1040D000E652E65203013351E56AE56E7BEC22F0CD
:1040E000E652E65203013551E56AE56E7BEC22F0BB
:1040F000E652E65203013751E56AE56E7BEC22F0A9
:10410000E652E65203012D51006E010EE56E00509D
:10411000E56E4CEC23F0E652E652030EE56EE80E37
:10412000E56EC2EC2AF0E652E65203012D51E56A33
:10413000E56E4CEC23F0E652E65203012F51006E7F
:10414000010EE56E0050E56E4CEC23F0E652E652AF
:10415000030EE56EE80EE56EC2EC2AF0E652E6527A
:1041600003012F51E56AE56E4CEC23F0E652E6526E
:10417000E56A010EE56EC20EE56E000EE56A25ECFD
:1041800027F0040EE12603013151006E010EE56EA9
:104190000050E56E4CEC23F0E652E6520301335139
:1041A000E56AE56E4CEC23F0E652E6520301355128
:1041B000006E010EE56E0050E56E4CEC23F0E65209
:1041C000E65203013751E56AE56E4CEC23F0E65206
:1041D000E652030EE56EE80EE56EC2EC2AF0E652FA
:1041E000E65203013151E56AE56E4CEC23F0E652EC
:1041F000E65203013351006E010EE56E0050E56E8C
:104200004CEC23F0E652E65203013551E56AE56EC7
:104210004CEC23F0E652E65203013751006E010EDA
:10422000E56E0050E56E4CEC23F0E652E652030ECC
:10423000E56EE80EE56EC2EC2AF0E652E6520301A6
:104240003551E56AE56E4CEC23F0E652E652030187
:104250003751E56AE56E4CEC23F0E652E652030175
:104260003151E56AE56E4CEC23F0E652E65203016B
:104270003351E56AE56E4CEC23F0E652E652000E4F
:10428000E56E3A0EE56E6E0EE56EFDEC29F0030E5E
:10429000E126000EE56E3A0EE56E720EE56EFDEC5F
:1042A00029F0030EE126000EE56E3A0EE56E9A0E39
:1042B000E56EFDEC29F0030EE126000EE56E3A0EE8
:1042C000E56E720EE56EFDEC29F0030EE126000EA0
:1042D000E56E3A0EE56E6E0EE56EFDEC29F0030E0E
:1042E000E12683EC2BF00201D16F000EE56E3A0E51
:1042F000E56EC20EE56EFDEC29F0030EE126E4CF7B
:1043000000F0120000C0E5FF01C0E5FF02C0E5FFBC
:1043100003C0E5FF04C0E5FF05C0E5FFD350030B74
:10432000006EFA6AFB6A0034FA36E834FA36FC0B9F
:10433000400FE56E430EFA22000EFB22E450F96EA8
:10434000A8EF21F039EF22F03FEF22F03FEF22F00B
:10435000E56A300EE56E000EE56AE56A27EC28F0A6
:10436000006E040EE126180E0016016AD890013284
:104370000032D89001320032D890013200323E0E25
:104380000024016E026A3A0E0222036A000E032222
:1043900001C0F6FF02C0F7FF03C0F8FF0900F5CF28
:1043A00001F0E56A300EE56EE56A010EE56E27EC78
:1043B00028F0026E040EE1260F0E02163A0E0024BB
:1043C000036E046A3A0E0422056A000E052203C039
:1043D000F6FF04C0F7FF05C0F8FF0900F5CF00F0B5
:1043E000D8900232025006E00250020A03E0025066
:1043F000060A1FE1E56AE56AE56A0150E56EE56ACD
:104400007A0EE56E120EE56E000EE56A1DEC24F0E4
:10441000016EF3CF02F0F4CF03F0E9CF04F0080E01
:10442000E12604C0E9FF03C0F4FF02C0F3FF01501E
:1044300055D0E56AE56AE56A0050E56E050EE56E61
:10444000B80EE56ED80EE56E000EE56A12EC26F0A9
:10445000006EF3CF01F0F4CF02F0E9CF03F0080EC5
:10446000E12603C0E9FF02C0F4FF01C0F3FF0050E2
:1044700035D0E96AF46A800EF36EE86A2FD0D35023
:10448000E838070BE56AE56EE56A040EE56E27EC91
:1044900000F0006EF3CF01F0040EE126026A420E36
:1044A00000263A0E0122000E022200C0F6FF01C0D3
:1044B000F7FF02C0F8FF0900F5CF00F00900F5CFC3
:1044C00001F00900F5CF02F00900F5CF03F003C0B9
:1044D000E9FF02C0F4FF01C0F3FF0050E4CF05F094
:1044E000E4CF04F0E4CF03F0E4CF02F0E4CF01F036
:1044F000E4CF00F01200D9CFE5FFE1CFD9FF00C033
:10450000E5FF01C0E5FF02C0E5FF03C0E5FF04C011
:10451000E5FF020EDBCF00F0030EDBCF01F0260E2D
:104520000024026E036A3A0E0322046A000E04227B
:1045300002C0F6FF03C0F7FF04C0F8FF0900F5CF83
:1045400002F0030E025CD8B09AD0FA6AFB6A023419
:10455000FA36E834FA36FC0B680FE56E450EFA229F
:10456000000EFB22E450F96EBAEF22F0E7EF22F0E2
:1045700014EF23F0015015E0120E0024026E036ABE
:104580003A0E0322046A000E042202C0F6FF03C0A2
:10459000F7FF04C0F8FF0900F5CF02F002509212B5
:1045A0006ED0120E0024026E036A3A0E0322046AD1
:1045B000000E042202C0F6FF03C0F7FF04C0F8FF9C
:1045C0000900F5CF02F00250FF08921658D00150B2
:1045D00015E0120E0024026E036A3A0E0322046AEA
:1045E000000E042202C0F6FF03C0F7FF04C0F8FF6C
:1045F0000900F5CF02F00250931241D0120E0024B0
:10460000026E036A3A0E0322046A000E042202C0FC
:10461000F6FF03C0F7FF04C0F8FF0900F5CF02F072
:104620000250FF0893162BD0015015E0120E002403
:10463000016E026A3A0E0222036A000E032201C0D2
:10464000F6FF02C0F7FF03C0F8FF0900F5CF01F045
:104650000150941214D0016A026A120E00263A0E1A
:104660000122000E022200C0F6FF01C0F7FF02C0C7
:10467000F8FF0900F5CF00F00050FF089416E4CFD2
:1046800004F0E4CF03F0E4CF02F0E4CF01F0E4CF94
:1046900000F0E4CFD9FF1200D9CFE5FFE1CFD9FF79
:1046A00000C0E5FF01C0E5FF02C0E5FF03C0E5FF74
:1046B00004C0E5FF020EDBCF00F0030EDBCF01F0FC
:1046C000260E0024026E036A3A0E0322046A000ECC
:1046D000042202C0F6FF03C0F7FF04C0F8FF090080
:1046E000F5CF02F0030E025CD8B09AD0FA6AFB6AEA
:1046F0000234FA36E834FA36FC0B0A0FE56E470E40
:10470000FA22000EFB22E450F96E8BEF23F0B8EF93
:1047100023F0E5EF23F0015015E0120E0024026EA5
:10472000036A3A0E0322046A000E042202C0F6FF56
:1047300003C0F7FF04C0F8FF0900F5CF02F00250F4
:1047400089126ED0120E0024026E036A3A0E032202
:10475000046A000E042202C0F6FF03C0F7FF04C083
:10476000F8FF0900F5CF02F00250FF08891658D073
:10477000015015E0120E0024026E036A3A0E032265
:10478000046A000E042202C0F6FF03C0F7FF04C053
:10479000F8FF0900F5CF02F002508A1241D0120E44
:1047A0000024026E036A3A0E0322046A000E0422F9
:1047B00002C0F6FF03C0F7FF04C0F8FF0900F5CF01
:1047C00002F00250FF088A162BD0015015E0120E9D
:1047D0000024016E026A3A0E0222036A000E0322CE
:1047E00001C0F6FF02C0F7FF03C0F8FF0900F5CFD4
:1047F00001F001508B1214D0016A026A120E0026D9
:104800003A0E0122000E022200C0F6FF01C0F7FF9F
:1048100002C0F8FF0900F5CF00F00050FF088B162A
:10482000E4CF04F0E4CF03F0E4CF02F0E4CF01F0F2
:10483000E4CF00F0E4CFD9FF1200D9CFE5FFE1CFFC
:10484000D9FF00C0E5FF01C0E5FF02C0E5FF03C0DE
:10485000E5FF04C0E5FF05C0E5FF06C0E5FF07C0B2
:10486000E5FF08C0E5FF09C0E5FF0AC0E5FF0BC092
:10487000E5FF0CC0E5FF0DC0E5FF020EDBCF00F049
:10488000030EDBCF01F0040EDBCF02F0050EDBCF11
:1048900003F0060EDBCF04F0070EDBCF05F0080EA9
:1048A000DBCF06F0090EDBCF07F0D88003AED8903F
:1048B000086A083608500FE0031C0C6E021C0B6ED1
:1048C000011C0A6E001C096E092A0DE10A2A0BE17F
:1048D0000B4A0C2A08D000C009F001C00AF002C03F
:1048E0000BF003C00CF0D88007AED890006A0036F9
:1048F00000500FE0071C0D6E061C036E051C026EB7
:10490000041C016E012A0DE1022A0BE1034A0D2A63
:1049100008D004C001F005C002F006C003F007C0D3
:104920000DF00D50E56E0350E56E0250E56E01503E
:10493000E56E0C50E56E0B50E56E0A50E56E0950C1
:10494000E56E12EC26F0016EF3CF02F0F4CF03F027
:10495000E9CF04F0080EE1260050081A085016E0CE
:10496000041C076E031C066E021C056E011C006E03
:10497000002A04E1052A02E1064A072A07C0E9FFE6
:1049800006C0F4FF05C0F3FF005007D004C0E9FFE4
:1049900003C0F4FF02C0F3FF0150E4CF0DF0E4CFF9
:1049A0000CF0E4CF0BF0E4CF0AF0E4CF09F0E4CF51
:1049B00008F0E4CF07F0E4CF06F0E4CF05F0E4CF51
:1049C00004F0E4CF03F0E4CF02F0E4CF01F0E4CF51
:1049D00000F0E4CFD9FF1200D9CFE5FFE1CFD9FF36
:1049E00000C0E5FF01C0E5FF02C0E5FF03C0E5FF31
:1049F000020EDBCF00F0260E0024016E026A3A0E92
:104A00000222036A000E032201C0F6FF02C0F7FF74
:104A100003C0F8FF0900F5CF01F0030E015CD8B028
:104A200062D0FA6AFB6A0134FA36E834FA36FC0BD3
:104A3000400FE56E4A0EFA22000EFB22E450F96E9A
:104A400026EF25F040EF25F05AEF25F0120E002456
:104A5000016E026A3A0E0222036A000E032201C0AE
:104A6000F6FF02C0F7FF03C0F8FF0900F5CF01F021
:104A700080500116015002E0010E36D0E86A34D0B1
:104A8000120E0024016E026A3A0E0222036A000E20
:104A9000032201C0F6FF02C0F7FF03C0F8FF0900C0
:104AA000F5CF01F081500116015002E0010E1CD03B
:104AB000E86A1AD0016A026A120E00263A0E012232
:104AC000000E022200C0F6FF01C0F7FF02C0F8FF8F
:104AD0000900F5CF00F082500016005002E0010EF0
:104AE00003D0E86A01D0E86AE4CF03F0E4CF02F033
:104AF000E4CF01F0E4CF00F0E4CFD9FF1200D9CF2A
:104B0000E5FFE1CFD9FF00C0E5FF01C0E5FF02C02E
:104B1000E5FF03C0E5FF04C0E5FF05C0E5FF06C0F3
:104B2000E5FF07C0E5FF08C0E5FF09C0E5FF0AC0D3
:104B3000E5FF020EDBCF00F0030EDBCF01F0040E29
:104B4000DBCF02F0050EDBCF03F0060EDBCF04F067
:104B5000070EDBCF05F0080EDBCF06F0090EDBCF2A
:104B600007F0086A096A0750800BE8440A6E0A5089
:104B70001BE1045004260536063607360750035C51
:104B800008E10650025C05E10550015C02E10450B9
:104B9000005C06E2D890073206320532043204D0B7
:104BA000092A09C008F0DFD70750035C08E1065066
:104BB000025C05E10550015C02E10450005C08E381
:104BC0000450005E0550015A0650025A0750035A1D
:104BD000D890073206320532043208C009F00806C0
:104BE0000950E2E103C0E9FF02C0F4FF01C0F3FF96
:104BF0000050E4CF0AF0E4CF09F0E4CF08F0E4CFAE
:104C000007F0E4CF06F0E4CF05F0E4CF04F0E4CF02
:104C100003F0E4CF02F0E4CF01F0E4CF00F0E4CF02
:104C2000D9FF1200D9CFE5FFE1CFD9FF00C0E5FFE2
:104C300001C0E5FF02C0E5FF03C0E5FF04C0E5FFDA
:104C400005C0E5FF06C0E5FF07C0E5FF08C0E5FFBA
:104C500009C0E5FF0AC0E5FF0BC0E5FF0CC0E5FF9A
:104C60000DC0E5FF020EDBCF00F0030EDBCF01F03D
:104C7000040EDBCF02F0050EDBCF03F0060EDBCF18
:104C800004F0070EDBCF05F0080EDBCF06F0090EAF
:104C9000DBCF07F0086A096A0A6A0B6A200E0C6EFD
:104CA0000350800BE8440D6E00500026013602369A
:104CB00003360850082609360A360B360D50D8A49C
:104CC000088007500B5C08E106500A5C05E10550BE
:104CD000095C02E10450085C09E30450085E0550D9
:104CE000095A06500A5A07500B5A00800C2ED8D782
:104CF00003C0E9FF02C0F4FF01C0F3FF0050E4CF9E
:104D00000DF0E4CF0CF0E4CF0BF0E4CF0AF0E4CFE9
:104D100009F0E4CF08F0E4CF07F0E4CF06F0E4CFE9
:104D200005F0E4CF04F0E4CF03F0E4CF02F0E4CFE9
:104D300001F0E4CF00F0E4CFD9FF1200D9CFE5FFB6
:104D4000E1CFD9FF00C0E5FF01C0E5FF02C0E5FFEC
:104D500003C0E5FF04C0E5FF05C0E5FF06C0E5FFB1
:104D600007C0E5FF08C0E5FF09C0E5FF0AC0E5FF91
:104D7000020EDBCF00F0030EDBCF01F0040EDBCF21
:104D800002F0050EDBCF03F0060EDBCF04F0070EBA
:104D9000DBCF05F000C0E9FF01C0F3FF025029ECB2
:104DA00000F0066E076A06BE076803C0E9FF04C08C
:104DB000F3FF055029EC00F0086E08C009F00A6AFC
:104DC00008BE0A680950065E0A50075A06C009F074
:104DD00007C00AF0065007100BE1085009E0002A4E
:104DE00002E3014A022A032AD5E3044A052AD2D75C
:104DF000D8800AAED89003E309680A680AD00A503E
:104E0000800F800F02E1010E095C03E3010E096EC1
:104E10000A6A0AC0F3FF0950E4CF0AF0E4CF09F0B0
:104E2000E4CF08F0E4CF07F0E4CF06F0E4CF05F0DC
:104E3000E4CF04F0E4CF03F0E4CF02F0E4CF01F0DC
:104E4000E4CF00F0E4CFD9FF1200D9CFE5FFE1CFE6
:104E5000D9FF00C0E5FF01C0E5FF02C0E5FF03C0C8
:104E6000E5FF04C0E5FF05C0E5FF06C0E5FF07C09C
:104E7000E5FF020EDBCF00F0030EDBCF01F0040EE6
:104E8000DBCF02F0050EDBCF03F082EC21F0046EE5
:104E9000F3CF05F0F4CF06F0E9CF07F00350E56E4D
:104EA0000250E56E0150E56E0050E56EE56AE56A78
:104EB000E56A040EE56E25EC00F0006EF3CF01F01C
:104EC000F4CF02F0E9CF03F0080EE1260350E56EBF
:104ED0000250E56E0150E56E0050E56E0750E56E3C
:104EE0000650E56E0550E56E0450E56E12EC26F0B6
:104EF000006EF3CF01F0080EE126FF0E002601221E
:104F00000150046E948EAC84B88604C0B0FF00C01B
:104F1000AFFF900EAB6EB88CAC8A9E9A9D8A9F8A2A
:104F2000010E0301396F03013A6FF28EF28CF28C9D
:104F3000E4CF07F0E4CF06F0E4CF05F0E4CF04F0CF
:104F4000E4CF03F0E4CF02F0E4CF01F0E4CF00F0CF
:104F5000E4CFD9FF1200D9CFE5FFE1CFD9FF00C0E0
:104F6000E5FF01C0E5FF02C0E5FF03C0E5FF04C0A7
:104F7000E5FF05C0E5FF06C0E5FF020EDBCF00F050
:104F8000030EDBCF01F0040EDBCF02F0050EDBCF0A
:104F900003F000500110021033E000C0E9FF01C02F
:104FA000F3FF02502DEC00F0046EF3CF05F0F4CFC8
:104FB00006F003C0E5FF04C0E9FF05C0F3FF06509B
:104FC00031EC00F000C0E9FF01C0F3FF02502DEC0E
:104FD00000F0046EF3CF05F0F4CF06F0042A02E3EC
:104FE000054A062A04C0E5FF05C0F4FF06C0F6FF27
:104FF00000C0E9FF01C0F3FF025035EC00F016D00D
:105000000350E56EF2CFE5FFF29E05002A0EFD6E1D
:10501000500EFE6E000EFF6EE4BEF28E26C3FBFF46
:1050200025C3FAFF03012451F96EE652E4CF06F0DE
:10503000E4CF05F0E4CF04F0E4CF03F0E4CF02F0D6
:10504000E4CF01F0E4CF00F0E4CFD9FF1200D9CFD4
:10505000E5FFE1CFD9FF00C0E5FF01C0E5FF02C0D9
:10506000E5FF03C0E5FF04C0E5FF05C0E5FF06C09E
:10507000E5FF07C0E5FF020EDBCF00F0030EDBCF3C
:1050800001F0040EDBCF02F0050EDBCF03F002507F
:10509000046E0350056E066A076A0450F86E0150EC
:1050A000046E0250056E0350066E076A0450F76ED8
:1050B0000050F66E0900F5CF00F00900F5CF01F0C1
:1050C000026A0150046E036A056A00500326055007
:1050D000042204C0F3FF0350E4CF07F0E4CF06F04E
:1050E000E4CF05F0E4CF04F0E4CF03F0E4CF02F026
:1050F000E4CF01F0E4CF00F0E4CFD9FF1200D9CF24
:10510000E5FFE1CFD9FF00C0E5FF01C0E5FF02C028
:10511000E5FF03C0E5FF04C0E5FF05C0E5FF020EA3
:10512000DBCF27F3030EDBCF28F3040EDBCF29F30D
:10513000050EDBCF00F0060EDBCF01F0070EDBCF54
:1051400002F0080EDBCF03F0090EDBCF04F00A0EED
:10515000DBCF05F00550E56E0450E56E0350E56EBB
:105160000250E56E0150E56E0050E56E800EE56E72
:10517000030EE56E270EE56E4BEC10F0006E090E87
:10518000E1260050E4CF05F0E4CF04F0E4CF03F0D3
:10519000E4CF02F0E4CF01F0E4CF00F0E4CFD9FF98
:1051A0001200D9CFE5FFE1CFD9FF00C0E5FF01C074
:1051B000E5FF02C0E5FF03C0E5FF04C0E5FF05C051
:1051C000E5FF020EDBCF24F3030EDBCF25F3040E45
:1051D000DBCF26F3050EDBCF00F0060EDBCF01F0B0
:1051E000070EDBCF02F0080EDBCF03F0090EDBCF9A
:1051F00004F00A0EDBCF05F00550E56E0450E56EB5
:105200000350E56E0250E56E0150E56E0050E56E0C
:10521000000EE56AE56AE56A4BEC10F0006E090ED7
:10522000E1260050E4CF05F0E4CF04F0E4CF03F032
:10523000E4CF02F0E4CF01F0E4CF00F0E4CFD9FFF7
:1052400012005C0EF66E570EF76E000EF86E090037
:10525000F550056E0900F550066E055002E1065046
:105260003BE00900F550006E0900F550016E0900A1
:10527000F550026E09000900F550E96E0900F5507D
:10528000EA6E090009000900F550036E0900F550A7
:10529000046E09000900F6CF07F0F7CF08F0F8CF49
:1052A00009F000C0F6FF01C0F7FF02C0F8FF03508D
:1052B00002E1045007E00900F550EE6E0306F8E243
:1052C0000406F9D707C0F6FF08C0F7FF09C0F8FFCA
:1052D0000506C4E20606C5D71200D9CFE5FFE1CF27
:1052E000D9FF00C0E5FF01C0E5FF02C0E5FF03C034
:1052F000E5FF04C0E5FF050ED924006E000EDA209C
:10530000016E800E026E030E0026000E01220222A4
:10531000020ED924036E000EDA20046E0250E56EF0
:105320000150E56E0050E56E070EDBCFE5FF060E7F
:10533000DBCFE5FF050EDBCFE5FF800EE56E045009
:10534000E56E0350E56E4BEC10F0006E090EE126A1
:105350000050E4CF04F0E4CF03F0E4CF02F0E4CF58
:1053600001F0E4CF00F0E4CFD9FF120000C0E5FF68
:1053700001C0E5FF02C0E5FF03C0E5FF006A83EC62
:105380002BF0016E01C002F0E56A0250E56E000EDE
:10539000E56E3A0EE56E6A0EE56EFDEC29F0050E3F
:1053A000E12600C002F0002A036A800E0226020EE7
:1053B000032202C0E9FF03C0EAFF01C0EFFF015072
:1053C0000D0ADDE1016A800E0026020E012200C0F6
:1053D000E9FF01C0EAFFEF6A016E800E026E02C0B3
:1053E000F4FF01C0F3FF800EE4CF03F0E4CF02F03E
:1053F000E4CF01F0E4CF00F01200D9CFE5FFE1CF18
:10540000D9FF00C0E5FF01C0E5FF02C0E5FF020EC5
:10541000D924006E000EDA20016E800E026E030E9B
:105420000026000E012202220250E56E0150E56EB8
:105430000050E56E040EDBCFE5FF030EDBCFE5FF8A
:10544000020EDBCFE5FF000EE56E560EE56EE20EB6
:10545000E56ED1EC28F0090EE126E4CF02F0E4CFAE
:1054600001F0E4CF00F0E4CFD9FF120000C0E5FF67
:1054700001C0E5FF02C0E5FF9EAA27D09E9AAECFED
:1054800000F0030139517F0A04E003013929016E5C
:1054900002D0010E016E03013A5101180FE039C329
:1054A00001F00301392B026A000E0126020E0222CE
:1054B00001C0E9FF02C0EAFF00C0EFFF030139515C
:1054C000800A03E1010E0301396FE4CF02F0E4CF5B
:1054D00001F0E4CF00F0120000C0E5FF01C0E5FFDD
:1054E00002C0E5FF006A5EEC2BF0016E015017E090
:1054F0009D9A3AC301F003013A2B026A000E01267D
:10550000020E022201C0E9FF02C0EAFFEFCF00F065
:105510003A51800A03E1010E03013A6F9D8A00505F
:10552000E4CF02F0E4CF01F0E4CF00F0120000C0BD
:10553000E5FF01C0E5FF02C0E5FF03C0E5FF82EC27
:1055400021F0006EF3CF01F0F4CF02F0E9CF03F0C9
:10555000D8900332023201320032D8900332023244
:105560000132003203C0E9FF02C0F4FF01C0F3FFC3
:105570000050E4CF03F0E4CF02F0E4CF01F0E4CF39
:1055800000F01200D9CFE5FFE1CFD9FF00C0E5FF61
:1055900001C0E5FF02C0E5FF03C0E5FF020EDBCF5F
:1055A00000F0030EDBCF01F0026A036A0150035CD6
:1055B00002E10050025C06E20C0E39EC00F0024AF7
:1055C000032AF4D7E4CF03F0E4CF02F0E4CF01F0F4
:1055D000E4CF00F0E4CFD9FF1200D9CFE5FFE1CF4F
:1055E000D9FF00C0E5FF01C0E5FF02C0E5FF03C031
:1055F000E5FF020EDBCF00F0030EDBCF01F0026A05
:10560000036A0150035C02E10050025C03E2024ABB
:10561000032AF7D7E4CF03F0E4CF02F0E4CF01F0A0
:10562000E4CF00F0E4CFD9FF1200D9CFE5FFE1CFFE
:10563000D9FF00C0E5FF01C0E5FF020EDBCF00F09F
:105640000050E56EECEC24F0016EE6520170015062
:10565000E56E0050E56E4CEC23F0E652E652E4CFE6
:1056600001F0E4CF00F0E4CFD9FF1200D0B202D0B5
:10567000930ED012D350030B800F7E0F02E3D3A4FE
:10568000FED793EC2BF0BBEC2BF039EC20F061EC67
:1056900015F0FDD71200004000000000E803FFCA2B
:1056A0003A00CE3A00D23A00D63A00DA3A00DE3A70
:1056B00000E23A00E63A00EA3A00000000C0E5FFE6
:1056C000006A0301395103013A1901E1002A00502F
:1056D000D880E866D890006A00360050E4CF00F029
:1056E0001200D9CFE5FFE1CFD9FF00C0E5FF020EE0
:1056F000DBCF00F0ACA2FED700C0ADFFE4CF00F0DE
:10570000E4CFD9FF120000C0E5FF5EEC2BF0006E85
:105710000050FBE06CEC2AF0006EB5EC2BF0005072
:10572000E4CF00F01200896A8A6A400E8B6E926A9A
:10573000936A949094929494949C949E806A816AC3
:10574000826A120011EEFFF021EEFFF0F86AA68ED9
:10575000A69C21EC29F036EC2BF0FFD701009656E1
:105760000000D002000026000000010E0301396F86
:1057700003013A6F12000F0EC16E070EB46E1200D5
:02578000120015
:00000001FF
